:10000000830101308A007429FF0003088301A100E5
:100010000A08A2008A018B130C150C1D1028112848
:10002000BA28201015088316A80083121608831614
:10003000A90024082802A0002508031C250A29027B
:10004000A1002808A4002908A5000130210264307D
:1000500003192002031836282D28013021021930F7
:1000600003192002031C3628352838283728482849
:100070008312201D40283C28A01D40283F284228EC
:100080004128442806148614831203132015A01552
:100090000230831603132102523003192002031881
:1000A0005B28522801302102E73003192002031C8B
:1000B0005B285A285D285C286D2883122019652842
:1000C0006128A01D6528642867286628692806100D
:1000D0008614831203132011A01504308316031312
:1000E00021022B30031920020318802877280330BF
:1000F00021026A3003192002031C80287F288228ED
:10010000812892288312201D8A288628A0198A28EF
:1001100089288C288B288E280614861083120313B6
:100120002015A0111D30831603132102123003196C
:1001300020020318A5289C2817302102CA30031971
:100140002002031CA528A428A728A628B7288312C4
:100150002019AF28AB28A019AF28AE28B128B028A5
:10016000B32806108610831203132011A0118312E6
:1001700003130C11831203130D140D1CC028C12886
:100180006A29A0101B088316AA0083121C08831674
:10019000AB0026082A02A2002708031C270A2B020C
:1001A000A3002A08A6002B08A70001302302643010
:1001B000031922020318E628DD2801302302243027
:1001C00003192202031CE628E528E828E728F82876
:1001D0008312201EF028EC28A01EF028EF28F22819
:1001E000F128F42806158615831203132016A0168D
:1001F0000230831603132302683003192202031806
:100200000B29022901302302F93003192202031CB1
:100210000B290A290D290C291D298312201A1529B9
:100220001129A01E15291429172916291929061183
:100230008615831203132012A016043083160313AD
:1002400023024130031922020318302927290330E1
:1002500023027C3003192202031C30292F29322962
:10026000312942298312201E3A293629A01A3A2917
:1002700039293C293B293E2906158611831203138F
:100280002016A0121D308316031323021130031908
:100290002202031855294C2917302302C9300319AB
:1002A0002202031C552954295729562967298312EC
:1002B000201A5F295B29A01A5F295E29612960291C
:1002C000632906118611831203132012A0128312D0
:1002D00003130D108B170313831222088A002108C1
:1002E0008300FF0E7F0E0900203084002130822120
:1002F000A0308400AC30822183018A11C32F040610
:0C0300008001840A0406031D7F290034DC
:100F86008A11CB278A11C82F6400C72F8A117429AA
:100F960086308316031381008C0183128C0183161D
:100FA6008D0183128D01033083168E008501860123
:100FB600FF30870088018901831285018601870138
:100FC600880189018101213090008F018E019201F3
:100FD600063097009501960106309D009B019C0105
:100FE60098019F018C1083168C108B010C150D1423
:0A0FF6000B178B170313831208007A
:00000001FF
